:020000040800F2
:100000000000022061020008D1020008D1020008AD
:10001000D1020008D1020008D1020008000000004F
:10002000000000000000000000000000D1020008F5
:10003000D102000800000000D1020008190E0008DB
:10004000D1020008D1020008D1020008D102000844
:10005000D1020008D1020008D1020008D102000834
:10006000D1020008D1020008D1020008D102000824
:10007000D1020008D1020008D1020008D102000814
:10008000D1020008D1020008D1020008D102000804
:10009000D1020008D1020008D1020008D1020008F4
:1000A000D1020008D1020008D1020008D1020008E4
:1000B000D1020008D1020008D1020008D1020008D4
:1000C000D1020008D1020008D1020008D1020008C4
:1000D000D1020008D1020008D1020008D1020008B4
:1000E000D1020008D1020008D1020008D1020008A4
:1000F000D1020008D1020008D1020008D102000894
:10010000D1020008D1020008D1020008D102000883
:10011000D1020008D1020008D1020008D102000873
:10012000D1020008D1020008D1020008D102000863
:10013000D1020008D1020008D1020008D102000853
:10014000D1020008D1020008D1020008D102000843
:10015000D1020008D1020008D1020008D102000833
:10016000D1020008D1020008D1020008D102000823
:10017000D1020008D1020008D102000800000000EE
:08018000D1020008D1020008C1
:100188000348044B834202D0034B03B1184770471E
:100198002C0000202C000020000000000548064B21
:1001A8001B1AD90F01EBA301491002D0034B03B16D
:1001B800184770472C0000202C0000200000000089
:1001C80010B5064C237843B9FFF7DAFF044B13B197
:1001D8000448AFF300800123237010BD2C000020D9
:1001E800000000007814000808B5054B1BB105494C
:1001F8000548AFF30080BDE80840FFF7CFBF00BF58
:1002080000000000300000207814000880B500AF1E
:100218000E4800F063F9002000F078F900F0E4F9E6
:100228000B4800F025FD00F0ABFD0A4800F098FFF0
:10023800062000F001FE4FF4847000F0FDFD4FF43D
:10024800FA7000F0C5FD00BFF2E700BFBC1300085C
:10025800181400085014000880B584B000AF154A7F
:10026800154BD31AFB60144BBB60144B7B6007E043
:100278007A68531C7B60BB68591CB96012781A7085
:10028800FB685A1EFA60002BF2D10D4A0D4BD31AA7
:100298003B600C4BBB6004E0BB685A1CBA60002290
:1002A8001A703B685A1E3A60002BF5D1FFF7AEFF73
:1002B80000BFFDE72C00002000000020801400088B
:1002C800640000202C00002080B400AF00BFFDE7D0
:1002D80080B483B000AF0346FB71FB79082B10D0C4
:1002E800082B10DC062B0AD0062B0CDC022B02D0C4
:1002F800042B02D007E0002306E0012304E00223D8
:1003080002E0032300E0002318460C37BD4680BCFA
:100318007047000080B400AF084B1B68074A43F4DD
:100328008033136000BF054B1B6803F40033002BB8
:10033800F9D000BF00BFBD4680BC704700380240FE
:1003480080B582B000AF78607B685B7A012B07D1FB
:10035800FFF7E0FF094B5B68084A43F480035360EA
:100368007B685B7A002B05D1044B5B68034A23F456
:100378008003536000BF0837BD4680BD0038024087
:1003880080B584B000AF7860364B5B68354A23F09F
:1003980070635360334B5A687B685B7F1B06314937
:1003A80013434B602F4B5B682E4A23F03F03536087
:1003B8002C4B5B687A68127E11462A4A0B435360BD
:1003C800284B5B68274A23F4FF4323F0400353601C
:1003D800244B5A687B685B8B9B01224913434B6013
:1003E800204B5B681F4A23F4403353607B681B7FB4
:1003F8001846FFF76DFF0346FB731A4B5A68FB7BE1
:100408001B04184913434B60164B9B68154A23F489
:1004180060439360134B9A687B685B695B0311497F
:1004280013438B600F4B9B680E4A23F4E053936091
:100438000C4B9A687B681B699B020A4913438B60C3
:10044800084B9B68074A23F0F0039360054B9A68B2
:100458007B68DB681B01034913438B6000BF1037BF
:10046800BD4680BD0038024080B400AF084B1B6811
:10047800074A43F08073136000BF054B1B6803F005
:100488000073002BF9D000BF00BFBD4680BC704789
:100498000038024080B400AF084B1B68074A23F0BD
:1004A8008073136000BF054B1B6803F00073002BBB
:1004B800F9D100BF00BFBD4680BC7047003802407C
:1004C80080B400AF044B1B6C034A43F00073136401
:1004D80000BFBD4680BC70470038024080B483B07E
:1004E80000AF78607B68002B06D0064A7B681360F3
:1004F800054B01221A7000E000BF0C37BD4680BCD6
:10050800704700BF480000204C00002080B584B030
:1005180000AF0346FB71234B1B78002B01D101234D
:100528003CE0214B1B681B79FA799A4201D30123DD
:1005380034E01E4AFB7913701B4B1B681A68FB7961
:100548005B011344FB601A4B1B68194A23F00F0325
:100558001360174B1B68FA68927F1146144A0B43C5
:100568001360FB681B7A022B0BD0022B15DC002BC7
:1005780005D0012B11D1FFF7CDFE00230EE000239B
:100588000CE0FFF787FFF868FFF7DAFEF868FFF777
:10059800F7FEFFF769FF002300E001231846103734
:1005A800BD4680BD4C000020480000204D000020C2
:1005B800003C024080B400AF094B1B78002B01D1EE
:1005C800022308E0074B1B6803F00073002B01D0DF
:1005D800002300E001231846BD4680BC704700BFD9
:1005E8004C0000200038024080B500AF1D4B1B783E
:1005F800002B01D1012333E0FFF762FF1A4B1B6880
:100608001A681A4B1B785B0113441B7A022B08D01B
:10061800022B22DC002B02D0012B1ED11FE000236D
:100628001EE0FFF7C7FF0346002B01D0012317E0A8
:100638000F4B9B680E4A23F0030393600C4B9B6897
:100648000B4A43F00203936000BF094B9B6803F019
:100658000C03082BF9D1002302E0012300E0012359
:10066800184680BD4C000020480000204D000020A6
:100678000038024080B483B000AF78607B68F02B0C
:100688003ED07B68F02B3ED87B68E02B35D07B686A
:10069800E02B38D87B68D02B2DD07B68D02B32D874
:1006A8007B68C02B25D07B68C02B2CD87B68B02BEF
:1006B8001DD07B68B02B26D87B68A02B15D07B6813
:1006C800A02B20D87B68902B0DD07B68902B1AD854
:1006D8007B68002B03D07B68802B02D013E00123BA
:1006E80012E0022310E004230EE008230CE010239C
:1006F8000AE0402308E0802306E04FF4807303E01B
:100708004FF4007300E0012318460C37BD4680BC47
:100718007047000080B485B000AF224B1B68002BE7
:1007280001D1002339E01F4B1B681A681E4B1B7848
:100738005B011344BB60BB681B7A022B0BD0022BF6
:100748002ADC002B02D0012B02D025E0174B24E035
:10075800BB681B6821E0BB685B7A012B07D1BB68CB
:100768001B68BA68127EB3FBF2F3FB6006E0BB6855
:100778001B7E1A460D4BB3FBF2F3FB60BB685B8B29
:100788001A46FB6802FB03F37B60BB681B7F1A46B3
:100798007B68B3FBF2F300E0002318461437BD462C
:1007A80080BC7047480000204D0000200024F40061
:1007B80090B583B000AF0E4B1B68002B01D100230E
:1007C80012E00B4B1B681A680A4B1B785B01134439
:1007D8007B60FFF79FFF04467B68DB681846FFF7DE
:1007E80049FF0346B4FBF3F318460C37BD4690BDEA
:1007F800480000204D00002080B485B000AF78602C
:100808007B681B88DBB203F00F03FB737B681B88D4
:100818001B099BB21A461A4B53F822301968FB7B06
:100828005B00032202FA03F3DA437B681B881B0987
:100838009BB21846124B53F820300A401A607B6866
:100848001B881B099BB21A460D4B53F822301A68B5
:100858007B68DB791946FB7B5B0001FA03F31946D9
:100868007B681B881B099BB21846054B53F8203040
:100878000A431A6000BF1437BD4680BC704700BFEA
:10088800C413000880B485B000AF78607B681B880B
:10089800DBB203F00F03FB737B681B881B099BB259
:1008A8001A46194B53F822305968FB7B012202FA89
:1008B80003F3DA437B681B881B099BB21846124B6B
:1008C80053F820300A405A607B681B881B099BB28A
:1008D8001A460D4B53F822305A687B68DB78194664
:1008E800FB7B01FA03F319467B681B881B099BB243
:1008F8001846054B53F820300A435A6000BF143796
:10090800BD4680BC704700BFC413000880B485B0E2
:1009180000AF78607B681B88DBB203F00F03FB73C2
:100928007B681B881B099BB21A461A4B53F8223066
:100938009968FB7B5B00032202FA03F3DA437B68C6
:100948001B881B099BB21846124B53F820300A40EB
:100958009A607B681B881B099BB21A460D4B53F89B
:1009680022309A687B681B791946FB7B5B0001FA89
:1009780003F319467B681B881B099BB21846054B75
:1009880053F820300A439A6000BF1437BD4680BC34
:10099800704700BFC413000880B485B000AF78600A
:1009A8007B681B88DBB203F00F03FB737B681B8833
:1009B8001B099BB21A461A4B53F82230D968FB7BA5
:1009C8005B00032202FA03F3DA437B681B881B09E6
:1009D8009BB21846124B53F820300A40DA607B6805
:1009E8001B881B099BB21A460D4B53F82230DA6854
:1009F8007B685B791946FB7B5B0001FA03F31946B8
:100A08007B681B881B099BB21846054B53F820309E
:100A18000A43DA6000BF1437BD4680BC704700BF88
:100A2800C413000880B483B000AF78600B46FB7035
:100A38007B689B79002B18D17B681B881B099BB2AC
:100A48001A46174B53F822305969FB78012202FAEB
:100A580003F3DA437B681B881B099BB21846104BCB
:100A680053F820300A405A6115E07B681B881B093F
:100A78009BB21A460A4B53F822305969FB78012277
:100A88009A407B681B881B099BB21846044B53F895
:100A980020300A435A6100BF0C37BD4680BC7047FE
:100AA800C413000880B485B000AF78607B681B88E9
:100AB800DBB203F00F03FB73FB7B072B34D87B6897
:100AC8001B881B099BB21A46354B53F82230196A0A
:100AD800FB7B9B000F2202FA03F3DA437B681B8837
:100AE8001B099BB218462E4B53F820300A401A6255
:100AF8007B681B881B099BB21A46294B53F8223086
:100B08001A6A7B681B7A1946FB7B9B0001FA03F380
:100B180019467B681B881B099BB21846204B53F863
:100B280020300A431A6236E0FB7B083BFB737B6884
:100B38001B881B099BB21A46194B53F82230596A75
:100B4800FB7B9B000F2202FA03F3DA437B681B88C6
:100B58001B099BB21846124B53F820300A405A62C0
:100B68007B681B881B099BB21A460D4B53F8223031
:100B78005A6A7B681B7A1946FB7B9B0001FA03F3D0
:100B880019467B681B881B099BB21846044B53F80F
:100B980020300A435A6200BF1437BD4680BC7047F4
:100BA800C413000880B483B000AF78607B681B88EA
:100BB8001B099BB2072B4BD0072B50DC062B40D0D0
:100BC800062B4CDC052B35D0052B48DC042B2AD012
:100BD800042B44DC032B1FD0032B40DC022B14D046
:100BE800022B3CDC002B02D0012B07D037E01F4B37
:100BF8001B6B1E4A43F00103136331E01B4B1B6B55
:100C08001A4A43F0020313632AE0184B1B6B174A76
:100C180043F00403136323E0144B1B6B134A43F0A4
:100C2800080313631CE0114B1B6B104A43F01003BD
:100C3800136315E00D4B1B6B0C4A43F02003136341
:100C48000EE00A4B1B6B094A43F04003136307E0AD
:100C5800064B1B6B054A43F08003136300E000BF9B
:100C680000BF0C37BD4680BC704700BF003802404B
:100C780080B584B000AF78607B68002B7AD03F4A9B
:100C88007B6813600023FB736DE03C4B1B6819689D
:100C9800FA7B13469B0013445B000B441846FFF78E
:100CA80081FF364B1B681968FA7B13469B00134477
:100CB8005B000B441846FFF79FFD304B1B68196813
:100CC800FA7B13469B0013445B000B441846FFF75E
:100CD800D9FD2A4B1B681968FA7B13469B001344FD
:100CE8005B000B441846FFF757FE244B1B68196836
:100CF800FA7B13469B0013445B000B441846FFF72E
:100D080005FE1E4B1B681968FA7B13469B001344AB
:100D18005B00C818194B1B681968FA7B13469B00BF
:100D280013445B000B441B88DBB21946FFF77AFEBD
:100D3800124B1B681968FA7B13469B0013445B002F
:100D48000B44DB79022B0BD10C4B1B681968FA7B1F
:100D580013469B0013445B000B441846FFF7A2FEA2
:100D6800FB7B0133FB73054B1B681B79FA7B9A42AB
:100D78008BD300E000BF1037BD4680BD5000002077
:100D880080B582B000AFFFF713FD03460E4AA2FB01
:100D980003239B097B607B68002B11D07B68B3F130
:100DA800807F0DD2094B00221A60084A7B68013BFC
:100DB8005360064B00229A60044B07221A6000E039
:100DC80000BF0837BD4680BDD34D621010E000E07B
:100DD80080B584B000AF786000F010F8F86000BF0C
:100DE80000F00CF80246FB68D31A7A689A42F7D8E2
:100DF80000BF00BF1037BD4680BD000080B400AF03
:100E0800024B1B681846BD4680BC70475400002042
:100E180080B500AF00F002F800BF80BD80B400AF1D
:100E2800044B1B680133034A136000BFBD4680BCF6
:100E3800704700BF5400002080B485B000AF03465F
:100E4800FB80FB881B0A9BB2FB73FB88BB73FB7B95
:100E5800104A52F823305969BB7B01229A40FB7B28
:100E68000C4850F823304A405A61FB7B094A52F833
:100E780023305A69BB7B012101FA03F31340002B8D
:100E880001D0012300E0002318461437BD4680BC7A
:100E9800704700BF0000002080B582B000AF00237B
:100EA800FB7113E00F4B1B681968FA7913465B0056
:100EB80013449B000B443B60FB790B4A0221D1543D
:100EC800386800F037F8FB790133FB71054B1B6874
:100ED8001B79FA799A42E5D300BF00BF0837BD46AF
:100EE80080BD00BF580000206000002080B582B09F
:100EF80000AF0023FB710FE00D4B1B689968FA796E
:100F080013465B0013449B000B443B60386800F0B9
:100F180047F8FB790133FB71FB799AB2044B1B68E4
:100F28009B899A42E8D300BF00BF0837BD4680BD01
:100F38005800002080B584B000AF78607B681B78CB
:100F48001A46164B53F82230FB60FB681B6843F0C7
:100F58000102FB681A6000BFFB685B6803F00103CD
:100F6800002BF9D07B681A787B685B681B88194668
:100F7800104600F015F9FB681B6823F00102FB68B6
:100F88001A6000BFFB685B6803F00103002BF9D10E
:100F980000BF00BF1037BD4680BD00BF2400002041
:100FA80080B582B000AF78607B685B79002B05D094
:100FB800012B07D1786800F00AF804E0786800F09F
:100FC8000FF800E000BF00BF0837BD4680BD80B401
:100FD80083B000AF786000BF0C37BD4680BC704757
:100FE80080B485B000AF78607B681B791A465B4B8C
:100FF80053F82230FB607B689B681B78002B00F05D
:10100800A880FB68D3F8003243F00102FB68C3F8FC
:101018000022FB68D3F81C227B689B685B78194622
:1010280001238B40DB431A40FB68C3F81C227B6812
:101038009B68DB78012B0DD1FB68D3F80C227B6809
:101048009B685B78194601238B401A43FB68C3F8F9
:101058000C220DE0FB68D3F80C227B689B685B7858
:10106800194601238B40DB431A40FB68C3F80C2266
:101078007B689B689B78002B0ED1FB68D3F8042211
:101088007B689B685B78194601238B40DB431A40D9
:10109800FB68C3F804220CE0FB68D3F804227B68E1
:1010A8009B685B78194601238B401A43FB68C3F899
:1010B80004227B689B681B7B002B0ED1FB68D3F84E
:1010C80014227B689B685B78194601238B40DB43BD
:1010D8001A40FB68C3F814220CE0FB68D3F814220A
:1010E8007B689B685B78194601238B401A43FB6831
:1010F800C3F814227B689B685B687A6892685278A8
:101108005905FB68483243F832107B689B689B6836
:101118007A689268527810465A05F96800F14803CF
:10112800DB000B445A60FB68D3F81C227B689B6881
:101138005B78194601238B401A43FB68C3F81C22CD
:10114800FB68D3F8003223F00102FB68C3F80022E1
:1011580000E000BF1437BD4680BC70472400002063
:1011680080B582B000AF78607B68002B0ED00A4B48
:101178001B78002B0CD1094A7B681360FFF78CFEA3
:10118800FFF7B4FE044B01221A7002E000BF00E032
:1011980000BF0837BD4680BD5C0000205800002015
:1011A80080B485B000AF03460A46FB711346BB8086
:1011B800FB79544AD35C022B40F09F800023FB73D9
:1011C80092E0514B1A68FB7BDB0013441B88BA88FA
:1011D8009A4240F086804C4B1A68FB7BDB00134434
:1011E8001B79013BBB73484B1A68FB7BDB0013443C
:1011F8005B79013B7B73444B1A68FB7BDB00134430
:101208009B79013B3B73404B1A68FB7BDB00134423
:101218005B88013BBB60FB793C4A52F82330DB69B1
:10122800FA793A4951F8222023F47F7323F0030313
:10123800D361FB79354A52F82330D969FB79334AAF
:1012480052F82330BA680A43DA61FB792F4A52F818
:101258002330DA69FB792D4951F8233022F04072A6
:10126800DA61FB79294A52F82330D969BB7B1A061F
:10127800FB79264850F823300A43DA61FB79234A80
:1012880052F82330DA69FB79204951F8233022F4E7
:101298007022DA61FB791D4A52F82330D9697B7BC9
:1012A8001A04FB79194850F823300A43DA61FB79AC
:1012B800164A52F82330DA69FB79144951F8233079
:1012C80022F4E002DA61FB79104A52F82330D96936
:1012D8003B7B1A05FB790D4850F823300A43DA6145
:1012E8000CE0FB7B0133FB73094B1B681B681B7A03
:1012F800FA7B9A42FFF465AF00E000BF1437BD46A1
:1013080080BC7047600000202000002024000020DE
:101318005800002000127A000000000002010000BE
:1013280000000000001400000080000008005001C8
:101338000207050000127A00000000000201000008
:10134800000000000010000000000000080050012C
:101358000407020000127A000000000002010000E9
:10136800000000000000000000000000080050011C
:101378000807010000127A000000000001010000C7
:101388000000000000000000000000000000000055
:101398000000000000127A000000000000000000B9
:1013A8000000000000000000000000000000000035
:1013B800000000001C1300080500000000000240A7
:1013C8000004024000080240000C024000100240E5
:1013D8000014024000180240001C024007000000F0
:1013E80001000001000006000000010000010000EB
:1013F8000B0000000301000209000C0000000301BB
:1014080000020900180000000100000100000000AF
:10141800E41300080500000000000600010D0200AA
:1014280001000001000100000007000000000000AA
:10143800030000000000000028140008000000005D
:1014480020140008010100004414000801000000F5
:101458003814000801000000F8B500BFF8BC08BC4B
:101468009E467047F8B500BFF8BC08BC9E4670475A
:04147800F101000876
:04147C00C90100089A
:10148000000002400004024000080240000C02403C
:10149000001002400014024000180240001C0240EC
:0C14A000201400080064004000680040B8
:04000005080002618C
:00000001FF
